{
  "contractName": "freelancer",
  "abi": [
    {
      "constant": true,
      "inputs": [],
      "name": "workCount",
      "outputs": [
        {
          "name": "",
          "type": "uint256"
        }
      ],
      "payable": false,
      "stateMutability": "view",
      "type": "function"
    },
    {
      "constant": true,
      "inputs": [
        {
          "name": "",
          "type": "uint256"
        }
      ],
      "name": "bids",
      "outputs": [
        {
          "name": "bid_id",
          "type": "uint256"
        },
        {
          "name": "name",
          "type": "string"
        },
        {
          "name": "message",
          "type": "string"
        },
        {
          "name": "time",
          "type": "uint256"
        },
        {
          "name": "price",
          "type": "uint256"
        },
        {
          "name": "bidder",
          "type": "address"
        }
      ],
      "payable": false,
      "stateMutability": "view",
      "type": "function"
    },
    {
      "constant": true,
      "inputs": [],
      "name": "bidCount",
      "outputs": [
        {
          "name": "",
          "type": "uint256"
        }
      ],
      "payable": false,
      "stateMutability": "view",
      "type": "function"
    },
    {
      "constant": true,
      "inputs": [
        {
          "name": "",
          "type": "uint256"
        }
      ],
      "name": "works",
      "outputs": [
        {
          "name": "id",
          "type": "uint256"
        },
        {
          "name": "name",
          "type": "string"
        },
        {
          "name": "owner",
          "type": "address"
        },
        {
          "name": "purchased",
          "type": "bool"
        }
      ],
      "payable": false,
      "stateMutability": "view",
      "type": "function"
    },
    {
      "anonymous": false,
      "inputs": [
        {
          "indexed": false,
          "name": "id",
          "type": "uint256"
        },
        {
          "indexed": false,
          "name": "name",
          "type": "string"
        },
        {
          "indexed": false,
          "name": "owner",
          "type": "address"
        },
        {
          "indexed": false,
          "name": "purchased",
          "type": "bool"
        }
      ],
      "name": "workCreated",
      "type": "event"
    },
    {
      "anonymous": false,
      "inputs": [
        {
          "indexed": false,
          "name": "bid_id",
          "type": "uint256"
        },
        {
          "indexed": false,
          "name": "name",
          "type": "string"
        },
        {
          "indexed": false,
          "name": "message",
          "type": "string"
        },
        {
          "indexed": false,
          "name": "time",
          "type": "uint256"
        },
        {
          "indexed": false,
          "name": "price",
          "type": "uint256"
        },
        {
          "indexed": false,
          "name": "bidder",
          "type": "address"
        }
      ],
      "name": "bidCreated",
      "type": "event"
    },
    {
      "anonymous": false,
      "inputs": [
        {
          "indexed": false,
          "name": "bid_id",
          "type": "uint256"
        },
        {
          "indexed": false,
          "name": "name",
          "type": "string"
        },
        {
          "indexed": false,
          "name": "message",
          "type": "string"
        },
        {
          "indexed": false,
          "name": "time",
          "type": "uint256"
        },
        {
          "indexed": false,
          "name": "price",
          "type": "uint256"
        },
        {
          "indexed": false,
          "name": "bidder",
          "type": "address"
        }
      ],
      "name": "bidPurchased",
      "type": "event"
    },
    {
      "constant": false,
      "inputs": [
        {
          "name": "_name",
          "type": "string"
        }
      ],
      "name": "createWork",
      "outputs": [],
      "payable": false,
      "stateMutability": "nonpayable",
      "type": "function"
    },
    {
      "constant": false,
      "inputs": [
        {
          "name": "_name",
          "type": "string"
        },
        {
          "name": "_message",
          "type": "string"
        },
        {
          "name": "_time",
          "type": "uint256"
        },
        {
          "name": "_price",
          "type": "uint256"
        }
      ],
      "name": "createBid",
      "outputs": [],
      "payable": false,
      "stateMutability": "nonpayable",
      "type": "function"
    },
    {
      "constant": false,
      "inputs": [
        {
          "name": "_id",
          "type": "uint256"
        }
      ],
      "name": "purchaseBid",
      "outputs": [],
      "payable": true,
      "stateMutability": "payable",
      "type": "function"
    }
  ],
  "bytecode": "0x608060405260008055600060015534801561001957600080fd5b5061127c806100296000396000f3fe6080604052600436106100705760003560e01c8063b40a56271161004e578063b40a5627146102d0578063c527e653146102fb578063c66e1dd51461046e578063fe4731081461056757610070565b80633343fa42146100755780634423c5f1146100a05780636c17eaf714610208575b600080fd5b34801561008157600080fd5b5061008a610595565b6040518082815260200191505060405180910390f35b3480156100ac57600080fd5b506100d9600480360360208110156100c357600080fd5b810190808035906020019092919050505061059b565b6040518087815260200180602001806020018681526020018581526020018473ffffffffffffffffffffffffffffffffffffffff1673ffffffffffffffffffffffffffffffffffffffff168152602001838103835288818151815260200191508051906020019080838360005b83811015610161578082015181840152602081019050610146565b50505050905090810190601f16801561018e5780820380516001836020036101000a031916815260200191505b50838103825287818151815260200191508051906020019080838360005b838110156101c75780820151818401526020810190506101ac565b50505050905090810190601f1680156101f45780820380516001836020036101000a031916815260200191505b509850505050505050505060405180910390f35b34801561021457600080fd5b506102ce6004803603602081101561022b57600080fd5b810190808035906020019064010000000081111561024857600080fd5b82018360208201111561025a57600080fd5b8035906020019184600183028401116401000000008311171561027c57600080fd5b91908080601f016020809104026020016040519081016040528093929190818152602001838380828437600081840152601f19601f820116905080830192505050505050509192919290505050610727565b005b3480156102dc57600080fd5b506102e5610903565b6040518082815260200191505060405180910390f35b34801561030757600080fd5b5061046c6004803603608081101561031e57600080fd5b810190808035906020019064010000000081111561033b57600080fd5b82018360208201111561034d57600080fd5b8035906020019184600183028401116401000000008311171561036f57600080fd5b91908080601f016020809104026020016040519081016040528093929190818152602001838380828437600081840152601f19601f820116905080830192505050505050509192919290803590602001906401000000008111156103d257600080fd5b8201836020820111156103e457600080fd5b8035906020019184600183028401116401000000008311171561040657600080fd5b91908080601f016020809104026020016040519081016040528093929190818152602001838380828437600081840152601f19601f8201169050808301925050505050505091929192908035906020019092919080359060200190929190505050610909565b005b34801561047a57600080fd5b506104a76004803603602081101561049157600080fd5b8101908080359060200190929190505050610b74565b60405180858152602001806020018473ffffffffffffffffffffffffffffffffffffffff1673ffffffffffffffffffffffffffffffffffffffff16815260200183151515158152602001828103825285818151815260200191508051906020019080838360005b8381101561052957808201518184015260208101905061050e565b50505050905090810190601f1680156105565780820380516001836020036101000a031916815260200191505b509550505050505060405180910390f35b6105936004803603602081101561057d57600080fd5b8101908080359060200190929190505050610c69565b005b60005481565b6003602052806000526040600020600091509050806000015490806001018054600181600116156101000203166002900480601f01602080910402602001604051908101604052809291908181526020018280546001816001161561010002031660029004801561064d5780601f106106225761010080835404028352916020019161064d565b820191906000526020600020905b81548152906001019060200180831161063057829003601f168201915b505050505090806002018054600181600116156101000203166002900480601f0160208091040260200160405190810160405280929190818152602001828054600181600116156101000203166002900480156106eb5780601f106106c0576101008083540402835291602001916106eb565b820191906000526020600020905b8154815290600101906020018083116106ce57829003601f168201915b5050505050908060030154908060040154908060050160009054906101000a900473ffffffffffffffffffffffffffffffffffffffff16905086565b604051806080016040528060005481526020018281526020013373ffffffffffffffffffffffffffffffffffffffff16815260200160001515815250600260008054815260200190815260200160002060008201518160000155602082015181600101908051906020019061079d92919061115f565b5060408201518160020160006101000a81548173ffffffffffffffffffffffffffffffffffffffff021916908373ffffffffffffffffffffffffffffffffffffffff16021790555060608201518160020160146101000a81548160ff02191690831515021790555090505060008081548092919060010191905055507fa8081b07fa24113b1f361990dd3727968cb27226287f350f50fd2b40d388b8556000548233600060405180858152602001806020018473ffffffffffffffffffffffffffffffffffffffff1673ffffffffffffffffffffffffffffffffffffffff16815260200183151515158152602001828103825285818151815260200191508051906020019080838360005b838110156108c35780820151818401526020810190506108a8565b50505050905090810190601f1680156108f05780820380516001836020036101000a031916815260200191505b509550505050505060405180910390a150565b60015481565b6040518060c0016040528060015481526020018581526020018481526020018381526020018281526020013373ffffffffffffffffffffffffffffffffffffffff1681525060036000600154815260200190815260200160002060008201518160000155602082015181600101908051906020019061098992919061115f565b5060408201518160020190805190602001906109a692919061115f565b50606082015181600301556080820151816004015560a08201518160050160006101000a81548173ffffffffffffffffffffffffffffffffffffffff021916908373ffffffffffffffffffffffffffffffffffffffff1602179055509050506001600081548092919060010191905055507f952f1fe361fd4b17c6c14170df3e4d383af1313790238efefee75afaeba9277360015485858585336040518087815260200180602001806020018681526020018581526020018473ffffffffffffffffffffffffffffffffffffffff1673ffffffffffffffffffffffffffffffffffffffff168152602001838103835288818151815260200191508051906020019080838360005b83811015610ac8578082015181840152602081019050610aad565b50505050905090810190601f168015610af55780820380516001836020036101000a031916815260200191505b50838103825287818151815260200191508051906020019080838360005b83811015610b2e578082015181840152602081019050610b13565b50505050905090810190601f168015610b5b5780820380516001836020036101000a031916815260200191505b509850505050505050505060405180910390a150505050565b6002602052806000526040600020600091509050806000015490806001018054600181600116156101000203166002900480601f016020809104026020016040519081016040528092919081815260200182805460018160011615610100020316600290048015610c265780601f10610bfb57610100808354040283529160200191610c26565b820191906000526020600020905b815481529060010190602001808311610c0957829003601f168201915b5050505050908060020160009054906101000a900473ffffffffffffffffffffffffffffffffffffffff16908060020160149054906101000a900460ff16905084565b610c716111df565b600360008381526020019081526020016000206040518060c001604052908160008201548152602001600182018054600181600116156101000203166002900480601f016020809104026020016040519081016040528092919081815260200182805460018160011615610100020316600290048015610d325780601f10610d0757610100808354040283529160200191610d32565b820191906000526020600020905b815481529060010190602001808311610d1557829003601f168201915b50505050508152602001600282018054600181600116156101000203166002900480601f016020809104026020016040519081016040528092919081815260200182805460018160011615610100020316600290048015610dd45780601f10610da957610100808354040283529160200191610dd4565b820191906000526020600020905b815481529060010190602001808311610db757829003601f168201915b5050505050815260200160038201548152602001600482015481526020016005820160009054906101000a900473ffffffffffffffffffffffffffffffffffffffff1673ffffffffffffffffffffffffffffffffffffffff1673ffffffffffffffffffffffffffffffffffffffff1681525050905060008160a00151905060008260000151118015610e6b57506001548260000151105b610e7457600080fd5b8160800151341015610e8557600080fd5b3373ffffffffffffffffffffffffffffffffffffffff168173ffffffffffffffffffffffffffffffffffffffff161415610ebe57600080fd5b338260a0019073ffffffffffffffffffffffffffffffffffffffff16908173ffffffffffffffffffffffffffffffffffffffff16815250508160036000858152602001908152602001600020600082015181600001556020820151816001019080519060200190610f3092919061115f565b506040820151816002019080519060200190610f4d92919061115f565b50606082015181600301556080820151816004015560a08201518160050160006101000a81548173ffffffffffffffffffffffffffffffffffffffff021916908373ffffffffffffffffffffffffffffffffffffffff1602179055509050508073ffffffffffffffffffffffffffffffffffffffff166108fc349081150290604051600060405180830381858888f19350505050158015610ff2573d6000803e3d6000fd5b507f1ae9867b6671e9200deb966cd052dcf71a924ddcb7fb1380e42ac4fb076ad0b46001548360200151846040015185606001518660800151336040518087815260200180602001806020018681526020018581526020018473ffffffffffffffffffffffffffffffffffffffff1673ffffffffffffffffffffffffffffffffffffffff168152602001838103835288818151815260200191508051906020019080838360005b838110156110b4578082015181840152602081019050611099565b50505050905090810190601f1680156110e15780820380516001836020036101000a031916815260200191505b50838103825287818151815260200191508051906020019080838360005b8381101561111a5780820151818401526020810190506110ff565b50505050905090810190601f1680156111475780820380516001836020036101000a031916815260200191505b509850505050505050505060405180910390a1505050565b828054600181600116156101000203166002900490600052602060002090601f016020900481019282601f106111a057805160ff19168380011785556111ce565b828001600101855582156111ce579182015b828111156111cd5782518255916020019190600101906111b2565b5b5090506111db919061122b565b5090565b6040518060c001604052806000815260200160608152602001606081526020016000815260200160008152602001600073ffffffffffffffffffffffffffffffffffffffff1681525090565b61124d91905b80821115611249576000816000905550600101611231565b5090565b9056fea165627a7a7230582059f1d667dbb2756b99964339ea10e5b2a79d4846bd577dfe8737b90dd31e920b0029",
  "source": "pragma solidity ^0.5.1;\ncontract freelancer{\n\n    struct work{\n        uint id;\n        string name;\n        address payable owner;\n        bool purchased;\n    }\n\n    struct bid{\n        uint bid_id;\n        string name;\n        string message;\n        uint time;\n        uint price;\n        address payable bidder;\n    }\n    \n    uint public workCount=0;\n    uint public bidCount=0;\n    \n    mapping (uint=>work) public works;\n    mapping (uint=>bid) public bids;\n    \n    \n    event workCreated(\n        uint id,\n        string name,\n        address payable owner,\n        bool purchased\n    );\n\n    event bidCreated(\n        //uint work_id,\n        uint bid_id,\n        string name,\n        string message,\n        uint time,\n        uint price,\n        address payable bidder\n\n        );\n    event bidPurchased(\n        uint bid_id,\n        string name,\n        string message,\n        uint time,\n        uint price,\n        address payable bidder\n        );\n    \n    function createWork(string memory _name)public{\n        works[workCount]=work(workCount,_name,msg.sender,false);\n        workCount++;\n        emit workCreated(workCount,_name,msg.sender,false);\n    }\n\n    function createBid( string memory _name, string memory _message, uint _time, uint _price) public{\n        bids[bidCount]=bid(bidCount,_name,_message,_time,_price, msg.sender);\n        bidCount++;\n        emit bidCreated(bidCount,_name,_message,_time,_price, msg.sender);\n        \n    }\n\n     function purchaseBid(uint _id) public payable  {\n        //fetch the bid\n        bid memory _bid = bids[_id];\n        //fetch the owner \n        address payable _seller =_bid.bidder;\n        // Make sure the product id is valid\n        require (_bid.bid_id >0 && _bid.bid_id< bidCount);\n        // enough ether\n        require (msg.value >= _bid.price);\n         //product is not purchased\n\n\n         //require (!_product.purchased);\n\n         //seller is not buyer\n         require (_seller!=msg.sender);\n         \n         \n        //transfer ownership to the buyer\n        _bid.bidder= msg.sender;\n         //mark as purchased\n         //_product.purchased = true;\n         //update the product\n         bids[_id]=_bid;\n         //pay the seller through ether\n         address(_seller).transfer(msg.value);\n         //trigger an event\n\n         emit bidPurchased(bidCount,_bid.name,_bid.message,_bid.time,_bid.price, msg.sender);\n\n    }    \n}",
  "sourcePath": "/home/neha/Desktop/blocklancer/Blocklancer/src/contracts/freelancer.sol",
  "compiler": {
    "name": "solc",
    "version": "0.5.8+commit.23d335f2.Emscripten.clang"
  },
  "schemaVersion": "3.0.11",
  "updatedAt": "2019-08-22T21:03:48.373Z",
  "devdoc": {
    "methods": {}
  },
  "userdoc": {
    "methods": {}
  }
}